{
    "_format": "hh-sol-artifact-1",
    "contractName": "CrowdFunding",
    "sourceName": "contracts/CrowdFunding.sol",
    "abi": [
        {
            "inputs": [
                {
                    "internalType": "uint256",
                    "name": "",
                    "type": "uint256"
                }
            ],
            "name": "campaigns",
            "outputs": [
                {
                    "internalType": "uint256",
                    "name": "id",
                    "type": "uint256"
                },
                {
                    "internalType": "address",
                    "name": "owner",
                    "type": "address"
                },
                {
                    "internalType": "string",
                    "name": "title",
                    "type": "string"
                },
                {
                    "internalType": "string",
                    "name": "description",
                    "type": "string"
                },
                {
                    "internalType": "uint256",
                    "name": "target",
                    "type": "uint256"
                },
                {
                    "internalType": "uint256",
                    "name": "deadline",
                    "type": "uint256"
                },
                {
                    "internalType": "uint256",
                    "name": "amountCollected",
                    "type": "uint256"
                },
                {
                    "internalType": "string",
                    "name": "image",
                    "type": "string"
                },
                {
                    "internalType": "uint256",
                    "name": "noofvotes",
                    "type": "uint256"
                },
                {
                    "internalType": "string",
                    "name": "theme",
                    "type": "string"
                },
                {
                    "internalType": "string",
                    "name": "types",
                    "type": "string"
                }
            ],
            "stateMutability": "view",
            "type": "function"
        },
        {
            "inputs": [
                {
                    "internalType": "address",
                    "name": "_owner",
                    "type": "address"
                },
                {
                    "internalType": "string",
                    "name": "_title",
                    "type": "string"
                },
                {
                    "internalType": "string",
                    "name": "_description",
                    "type": "string"
                },
                {
                    "internalType": "uint256",
                    "name": "_target",
                    "type": "uint256"
                },
                {
                    "internalType": "uint256",
                    "name": "_deadline",
                    "type": "uint256"
                },
                {
                    "internalType": "string",
                    "name": "_image",
                    "type": "string"
                },
                {
                    "internalType": "string",
                    "name": "_theme",
                    "type": "string"
                },
                {
                    "internalType": "string",
                    "name": "_types",
                    "type": "string"
                }
            ],
            "name": "createCampaign",
            "outputs": [
                {
                    "internalType": "uint256",
                    "name": "",
                    "type": "uint256"
                }
            ],
            "stateMutability": "nonpayable",
            "type": "function"
        },
        {
            "inputs": [
                {
                    "internalType": "uint256",
                    "name": "_id",
                    "type": "uint256"
                }
            ],
            "name": "donateToCampaign",
            "outputs": [],
            "stateMutability": "payable",
            "type": "function"
        },
        {
            "inputs": [],
            "name": "getCampaigns",
            "outputs": [
                {
                    "components": [
                        {
                            "internalType": "uint256",
                            "name": "id",
                            "type": "uint256"
                        },
                        {
                            "internalType": "address",
                            "name": "owner",
                            "type": "address"
                        },
                        {
                            "internalType": "string",
                            "name": "title",
                            "type": "string"
                        },
                        {
                            "internalType": "string",
                            "name": "description",
                            "type": "string"
                        },
                        {
                            "internalType": "uint256",
                            "name": "target",
                            "type": "uint256"
                        },
                        {
                            "internalType": "uint256",
                            "name": "deadline",
                            "type": "uint256"
                        },
                        {
                            "internalType": "uint256",
                            "name": "amountCollected",
                            "type": "uint256"
                        },
                        {
                            "internalType": "string",
                            "name": "image",
                            "type": "string"
                        },
                        {
                            "internalType": "uint256",
                            "name": "noofvotes",
                            "type": "uint256"
                        },
                        {
                            "internalType": "string",
                            "name": "theme",
                            "type": "string"
                        },
                        {
                            "internalType": "string",
                            "name": "types",
                            "type": "string"
                        },
                        {
                            "internalType": "address[]",
                            "name": "vote",
                            "type": "address[]"
                        },
                        {
                            "internalType": "address[]",
                            "name": "donators",
                            "type": "address[]"
                        },
                        {
                            "internalType": "uint256[]",
                            "name": "donations",
                            "type": "uint256[]"
                        }
                    ],
                    "internalType": "struct CrowdFunding.Campaign[]",
                    "name": "",
                    "type": "tuple[]"
                }
            ],
            "stateMutability": "view",
            "type": "function"
        },
        {
            "inputs": [
                {
                    "internalType": "uint256",
                    "name": "_id",
                    "type": "uint256"
                }
            ],
            "name": "getDonators",
            "outputs": [
                {
                    "internalType": "address[]",
                    "name": "",
                    "type": "address[]"
                },
                {
                    "internalType": "uint256[]",
                    "name": "",
                    "type": "uint256[]"
                }
            ],
            "stateMutability": "view",
            "type": "function"
        },
        {
            "inputs": [
                {
                    "internalType": "uint256",
                    "name": "_id",
                    "type": "uint256"
                }
            ],
            "name": "getvote",
            "outputs": [
                {
                    "internalType": "address[]",
                    "name": "",
                    "type": "address[]"
                }
            ],
            "stateMutability": "view",
            "type": "function"
        },
        {
            "inputs": [
                {
                    "internalType": "uint256",
                    "name": "_id",
                    "type": "uint256"
                }
            ],
            "name": "markvote",
            "outputs": [],
            "stateMutability": "nonpayable",
            "type": "function"
        },
        {
            "inputs": [],
            "name": "numberOfCampaigns",
            "outputs": [
                {
                    "internalType": "uint256",
                    "name": "",
                    "type": "uint256"
                }
            ],
            "stateMutability": "view",
            "type": "function"
        }
    ],
    "bytecode": "0x60806040526000600155348015601457600080fd5b506120c1806100246000396000f3fe60806040526004361061007b5760003560e01c80634663d10c1161004e5780634663d10c1461014c578063616208661461017557806394b4e4f7146101b2578063a6b03633146101ef5761007b565b806307ca140d146100805780630fa91fa9146100ab578063141961bc146100e957806342a4fda814610130575b600080fd5b34801561008c57600080fd5b5061009561021a565b6040516100a29190611151565b60405180910390f35b3480156100b757600080fd5b506100d260048036038101906100cd91906111ac565b610220565b6040516100e0929190611387565b60405180910390f35b3480156100f557600080fd5b50610110600480360381019061010b91906111ac565b610330565b6040516101279b9a9998979695949392919061145d565b60405180910390f35b61014a600480360381019061014591906111ac565b610652565b005b34801561015857600080fd5b50610173600480360381019061016e91906111ac565b6107b2565b005b34801561018157600080fd5b5061019c6004803603810190610197919061168c565b61091c565b6040516101a99190611151565b60405180910390f35b3480156101be57600080fd5b506101d960048036038101906101d491906111ac565b610a74565b6040516101e691906117ce565b60405180910390f35b3480156101fb57600080fd5b50610204610b1d565b6040516102119190611b39565b60405180910390f35b60015481565b606080600080848152602001908152602001600020600c01600080858152602001908152602001600020600d01818054806020026020016040519081016040528092919081815260200182805480156102ce57602002820191906000526020600020905b8160009054906101000a900473ffffffffffffffffffffffffffffffffffffffff1673ffffffffffffffffffffffffffffffffffffffff1681526020019060010190808311610284575b505050505091508080548060200260200160405190810160405280929190818152602001828054801561032057602002820191906000526020600020905b81548152602001906001019080831161030c575b5050505050905091509150915091565b60006020528060005260406000206000915090508060000154908060010160009054906101000a900473ffffffffffffffffffffffffffffffffffffffff169080600201805461037f90611b8a565b80601f01602080910402602001604051908101604052809291908181526020018280546103ab90611b8a565b80156103f85780601f106103cd576101008083540402835291602001916103f8565b820191906000526020600020905b8154815290600101906020018083116103db57829003601f168201915b50505050509080600301805461040d90611b8a565b80601f016020809104026020016040519081016040528092919081815260200182805461043990611b8a565b80156104865780601f1061045b57610100808354040283529160200191610486565b820191906000526020600020905b81548152906001019060200180831161046957829003601f168201915b5050505050908060040154908060050154908060060154908060070180546104ad90611b8a565b80601f01602080910402602001604051908101604052809291908181526020018280546104d990611b8a565b80156105265780601f106104fb57610100808354040283529160200191610526565b820191906000526020600020905b81548152906001019060200180831161050957829003601f168201915b50505050509080600801549080600901805461054190611b8a565b80601f016020809104026020016040519081016040528092919081815260200182805461056d90611b8a565b80156105ba5780601f1061058f576101008083540402835291602001916105ba565b820191906000526020600020905b81548152906001019060200180831161059d57829003601f168201915b50505050509080600a0180546105cf90611b8a565b80601f01602080910402602001604051908101604052809291908181526020018280546105fb90611b8a565b80156106485780601f1061061d57610100808354040283529160200191610648565b820191906000526020600020905b81548152906001019060200180831161062b57829003601f168201915b505050505090508b565b60003490506000806000848152602001908152602001600020905080600c01339080600181540180825580915050600190039060005260206000200160009091909190916101000a81548173ffffffffffffffffffffffffffffffffffffffff021916908373ffffffffffffffffffffffffffffffffffffffff16021790555080600d0182908060018154018082558091505060019003906000526020600020016000909190919091505560008160010160009054906101000a900473ffffffffffffffffffffffffffffffffffffffff1673ffffffffffffffffffffffffffffffffffffffff168360405161074790611bec565b60006040518083038185875af1925050503d8060008114610784576040519150601f19603f3d011682016040523d82523d6000602084013e610789565b606091505b5050905080156107ac578282600601546107a39190611c30565b82600601819055505b50505050565b60008060008381526020019081526020016000209050600081600b01905060005b8260080154811015610897573373ffffffffffffffffffffffffffffffffffffffff1682828154811061080957610808611c64565b5b9060005260206000200160009054906101000a900473ffffffffffffffffffffffffffffffffffffffff1673ffffffffffffffffffffffffffffffffffffffff160361088a576040517f08c379a000000000000000000000000000000000000000000000000000000000815260040161088190611cdf565b60405180910390fd5b80806001019150506107d3565b508160080160008154809291906108ad90611cff565b919050555081600b01339080600181540180825580915050600190039060005260206000200160009091909190916101000a81548173ffffffffffffffffffffffffffffffffffffffff021916908373ffffffffffffffffffffffffffffffffffffffff160217905550505050565b600080600080600154815260200190815260200160002090504281600501541061097b576040517f08c379a000000000000000000000000000000000000000000000000000000000815260040161097290611db9565b60405180910390fd5b6001548160000181905550898160010160006101000a81548173ffffffffffffffffffffffffffffffffffffffff021916908373ffffffffffffffffffffffffffffffffffffffff160217905550888160020190816109da9190611f85565b50878160030190816109ec9190611f85565b508681600401819055508581600501819055506000816006018190555084816007019081610a1a9190611f85565b5083816009019081610a2c9190611f85565b508281600a019081610a3e9190611f85565b5060016000815480929190610a5290611cff565b919050555060018054610a659190612057565b91505098975050505050505050565b60606000806000848152602001908152602001600020905080600b01805480602002602001604051908101604052809291908181526020018280548015610b1057602002820191906000526020600020905b8160009054906101000a900473ffffffffffffffffffffffffffffffffffffffff1673ffffffffffffffffffffffffffffffffffffffff1681526020019060010190808311610ac6575b5050505050915050919050565b6060600060015467ffffffffffffffff811115610b3d57610b3c611561565b5b604051908082528060200260200182016040528015610b7657816020015b610b636110b3565b815260200190600190039081610b5b5790505b50905060005b6001548110156110ab576000806000838152602001908152602001600020905080604051806101c0016040529081600082015481526020016001820160009054906101000a900473ffffffffffffffffffffffffffffffffffffffff1673ffffffffffffffffffffffffffffffffffffffff1673ffffffffffffffffffffffffffffffffffffffff168152602001600282018054610c1990611b8a565b80601f0160208091040260200160405190810160405280929190818152602001828054610c4590611b8a565b8015610c925780601f10610c6757610100808354040283529160200191610c92565b820191906000526020600020905b815481529060010190602001808311610c7557829003601f168201915b50505050508152602001600382018054610cab90611b8a565b80601f0160208091040260200160405190810160405280929190818152602001828054610cd790611b8a565b8015610d245780601f10610cf957610100808354040283529160200191610d24565b820191906000526020600020905b815481529060010190602001808311610d0757829003601f168201915b50505050508152602001600482015481526020016005820154815260200160068201548152602001600782018054610d5b90611b8a565b80601f0160208091040260200160405190810160405280929190818152602001828054610d8790611b8a565b8015610dd45780601f10610da957610100808354040283529160200191610dd4565b820191906000526020600020905b815481529060010190602001808311610db757829003601f168201915b5050505050815260200160088201548152602001600982018054610df790611b8a565b80601f0160208091040260200160405190810160405280929190818152602001828054610e2390611b8a565b8015610e705780601f10610e4557610100808354040283529160200191610e70565b820191906000526020600020905b815481529060010190602001808311610e5357829003601f168201915b50505050508152602001600a82018054610e8990611b8a565b80601f0160208091040260200160405190810160405280929190818152602001828054610eb590611b8a565b8015610f025780601f10610ed757610100808354040283529160200191610f02565b820191906000526020600020905b815481529060010190602001808311610ee557829003601f168201915b50505050508152602001600b8201805480602002602001604051908101604052809291908181526020018280548015610f9057602002820191906000526020600020905b8160009054906101000a900473ffffffffffffffffffffffffffffffffffffffff1673ffffffffffffffffffffffffffffffffffffffff1681526020019060010190808311610f46575b50505050508152602001600c820180548060200260200160405190810160405280929190818152602001828054801561101e57602002820191906000526020600020905b8160009054906101000a900473ffffffffffffffffffffffffffffffffffffffff1673ffffffffffffffffffffffffffffffffffffffff1681526020019060010190808311610fd4575b50505050508152602001600d820180548060200260200160405190810160405280929190818152602001828054801561107657602002820191906000526020600020905b815481526020019060010190808311611062575b50505050508152505083838151811061109257611091611c64565b5b6020026020010181905250508080600101915050610b7c565b508091505090565b604051806101c0016040528060008152602001600073ffffffffffffffffffffffffffffffffffffffff1681526020016060815260200160608152602001600081526020016000815260200160008152602001606081526020016000815260200160608152602001606081526020016060815260200160608152602001606081525090565b6000819050919050565b61114b81611138565b82525050565b60006020820190506111666000830184611142565b92915050565b6000604051905090565b600080fd5b600080fd5b61118981611138565b811461119457600080fd5b50565b6000813590506111a681611180565b92915050565b6000602082840312156111c2576111c1611176565b5b60006111d084828501611197565b91505092915050565b600081519050919050565b600082825260208201905092915050565b6000819050602082019050919050565b600073ffffffffffffffffffffffffffffffffffffffff82169050919050565b600061123082611205565b9050919050565b61124081611225565b82525050565b60006112528383611237565b60208301905092915050565b6000602082019050919050565b6000611276826111d9565b61128081856111e4565b935061128b836111f5565b8060005b838110156112bc5781516112a38882611246565b97506112ae8361125e565b92505060018101905061128f565b5085935050505092915050565b600081519050919050565b600082825260208201905092915050565b6000819050602082019050919050565b6112fe81611138565b82525050565b600061131083836112f5565b60208301905092915050565b6000602082019050919050565b6000611334826112c9565b61133e81856112d4565b9350611349836112e5565b8060005b8381101561137a5781516113618882611304565b975061136c8361131c565b92505060018101905061134d565b5085935050505092915050565b600060408201905081810360008301526113a1818561126b565b905081810360208301526113b58184611329565b90509392505050565b6113c781611225565b82525050565b600081519050919050565b600082825260208201905092915050565b60005b838110156114075780820151818401526020810190506113ec565b60008484015250505050565b6000601f19601f8301169050919050565b600061142f826113cd565b61143981856113d8565b93506114498185602086016113e9565b61145281611413565b840191505092915050565b600061016082019050611473600083018e611142565b611480602083018d6113be565b8181036040830152611492818c611424565b905081810360608301526114a6818b611424565b90506114b5608083018a611142565b6114c260a0830189611142565b6114cf60c0830188611142565b81810360e08301526114e18187611424565b90506114f1610100830186611142565b8181036101208301526115048185611424565b90508181036101408301526115198184611424565b90509c9b505050505050505050505050565b61153481611225565b811461153f57600080fd5b50565b6000813590506115518161152b565b92915050565b600080fd5b600080fd5b7f4e487b7100000000000000000000000000000000000000000000000000000000600052604160045260246000fd5b61159982611413565b810181811067ffffffffffffffff821117156115b8576115b7611561565b5b80604052505050565b60006115cb61116c565b90506115d78282611590565b919050565b600067ffffffffffffffff8211156115f7576115f6611561565b5b61160082611413565b9050602081019050919050565b82818337600083830152505050565b600061162f61162a846115dc565b6115c1565b90508281526020810184848401111561164b5761164a61155c565b5b61165684828561160d565b509392505050565b600082601f83011261167357611672611557565b5b813561168384826020860161161c565b91505092915050565b600080600080600080600080610100898b0312156116ad576116ac611176565b5b60006116bb8b828c01611542565b985050602089013567ffffffffffffffff8111156116dc576116db61117b565b5b6116e88b828c0161165e565b975050604089013567ffffffffffffffff8111156117095761170861117b565b5b6117158b828c0161165e565b96505060606117268b828c01611197565b95505060806117378b828c01611197565b94505060a089013567ffffffffffffffff8111156117585761175761117b565b5b6117648b828c0161165e565b93505060c089013567ffffffffffffffff8111156117855761178461117b565b5b6117918b828c0161165e565b92505060e089013567ffffffffffffffff8111156117b2576117b161117b565b5b6117be8b828c0161165e565b9150509295985092959890939650565b600060208201905081810360008301526117e8818461126b565b905092915050565b600081519050919050565b600082825260208201905092915050565b6000819050602082019050919050565b600082825260208201905092915050565b6000611838826113cd565b611842818561181c565b93506118528185602086016113e9565b61185b81611413565b840191505092915050565b600082825260208201905092915050565b6000611882826111d9565b61188c8185611866565b9350611897836111f5565b8060005b838110156118c85781516118af8882611246565b97506118ba8361125e565b92505060018101905061189b565b5085935050505092915050565b600082825260208201905092915050565b60006118f1826112c9565b6118fb81856118d5565b9350611906836112e5565b8060005b8381101561193757815161191e8882611304565b97506119298361131c565b92505060018101905061190a565b5085935050505092915050565b60006101c08301600083015161195d60008601826112f5565b5060208301516119706020860182611237565b5060408301518482036040860152611988828261182d565b915050606083015184820360608601526119a2828261182d565b91505060808301516119b760808601826112f5565b5060a08301516119ca60a08601826112f5565b5060c08301516119dd60c08601826112f5565b5060e083015184820360e08601526119f5828261182d565b915050610100830151611a0c6101008601826112f5565b50610120830151848203610120860152611a26828261182d565b915050610140830151848203610140860152611a42828261182d565b915050610160830151848203610160860152611a5e8282611877565b915050610180830151848203610180860152611a7a8282611877565b9150506101a08301518482036101a0860152611a9682826118e6565b9150508091505092915050565b6000611aaf8383611944565b905092915050565b6000602082019050919050565b6000611acf826117f0565b611ad981856117fb565b935083602082028501611aeb8561180c565b8060005b85811015611b275784840389528151611b088582611aa3565b9450611b1383611ab7565b925060208a01995050600181019050611aef565b50829750879550505050505092915050565b60006020820190508181036000830152611b538184611ac4565b905092915050565b7f4e487b7100000000000000000000000000000000000000000000000000000000600052602260045260246000fd5b60006002820490506001821680611ba257607f821691505b602082108103611bb557611bb4611b5b565b5b50919050565b600081905092915050565b50565b6000611bd6600083611bbb565b9150611be182611bc6565b600082019050919050565b6000611bf782611bc9565b9150819050919050565b7f4e487b7100000000000000000000000000000000000000000000000000000000600052601160045260246000fd5b6000611c3b82611138565b9150611c4683611138565b9250828201905080821115611c5e57611c5d611c01565b5b92915050565b7f4e487b7100000000000000000000000000000000000000000000000000000000600052603260045260246000fd5b7f596f75206861766520616c726561647920766f7465642e000000000000000000600082015250565b6000611cc96017836113d8565b9150611cd482611c93565b602082019050919050565b60006020820190508181036000830152611cf881611cbc565b9050919050565b6000611d0a82611138565b91507fffffffffffffffffffffffffffffffffffffffffffffffffffffffffffffffff8203611d3c57611d3b611c01565b5b600182019050919050565b7f54686520646561646c696e652073686f756c642062652061206461746520696e60008201527f20746865206675747572652e0000000000000000000000000000000000000000602082015250565b6000611da3602c836113d8565b9150611dae82611d47565b604082019050919050565b60006020820190508181036000830152611dd281611d96565b9050919050565b60008190508160005260206000209050919050565b60006020601f8301049050919050565b600082821b905092915050565b600060088302611e3b7fffffffffffffffffffffffffffffffffffffffffffffffffffffffffffffffff82611dfe565b611e458683611dfe565b95508019841693508086168417925050509392505050565b6000819050919050565b6000611e82611e7d611e7884611138565b611e5d565b611138565b9050919050565b6000819050919050565b611e9c83611e67565b611eb0611ea882611e89565b848454611e0b565b825550505050565b600090565b611ec5611eb8565b611ed0818484611e93565b505050565b5b81811015611ef457611ee9600082611ebd565b600181019050611ed6565b5050565b601f821115611f3957611f0a81611dd9565b611f1384611dee565b81016020851015611f22578190505b611f36611f2e85611dee565b830182611ed5565b50505b505050565b600082821c905092915050565b6000611f5c60001984600802611f3e565b1980831691505092915050565b6000611f758383611f4b565b9150826002028217905092915050565b611f8e826113cd565b67ffffffffffffffff811115611fa757611fa6611561565b5b611fb18254611b8a565b611fbc828285611ef8565b600060209050601f831160018114611fef5760008415611fdd578287015190505b611fe78582611f69565b86555061204f565b601f198416611ffd86611dd9565b60005b8281101561202557848901518255600182019150602085019450602081019050612000565b86831015612042578489015161203e601f891682611f4b565b8355505b6001600288020188555050505b505050505050565b600061206282611138565b915061206d83611138565b925082820390508181111561208557612084611c01565b5b9291505056fea2646970667358221220ff21cc848c3872ebd0966fa22089d622ebd4d5e12c6983770a63df5c57b970d864736f6c634300081b0033",
    "linkReferences": {},
    "deployedLinkReferences": {}
}